:020000040800F2
:1000000050330020650200089D650008355D00083A
:1000100099650008411C0008757E0008000000007A
:10002000000000000000000000000000697B0008E4
:100030002129000800000000A16500086D7B000870
:100040007F0200087F0200087F0200087F0200088C
:100050007F0200087F020008FD3300087F020008CD
:100060007F0200087F0200087F0200087F0200086C
:100070007F0200087F0200087F0200087F0200085C
:100080007F0200087F0200087F0200087F0200084C
:100090007F0200087F0200087F0200087F0200083C
:1000A0007F0200087F0200087F0200087F0200082C
:1000B0007F0200087F0200087F0200087F0200081C
:1000C0007F0200087F0200087F0200087F0200080C
:1000D0007F0200087F0200087F0200087F020008FC
:1000E0007F0200087F0200087F0200087F020008EC
:1000F0007F0200087F0200087F0200087F020008DC
:100100007F0200087F0200087F0200087F020008CB
:10011000597C00087F0200087F0200087F02000867
:100120007F0200087F0200087F0200087F020008AB
:100130007F0200087F0200087F0200087F0200089B
:100140007F0200087F0200087F0200087F0200088B
:100150007F0200087F0200087F0200087F0200087B
:100160007F0200087F0200087F0200087F0200086B
:100170007F0200087F0200087F02000800000000E4
:100180007F0200087F02000800F002F800F05BF830
:100190000AA090E8000C82448344AAF10107DA45E2
:1001A00001D100F050F8AFF2090EBAE80F0013F0D9
:1001B000010F18BFFB1A43F001031847700D01002F
:1001C000900D0100103A24BF78C878C1FAD85207C0
:1001D00024BF30C830C144BF04680C6070470000C1
:1001E0000023002400250026103A28BF78C1FBD840
:1001F000520728BF30C148BF0B60704766290EF018
:100200008383642900F02A81752900F027817829E9
:1002100000F06081732900F0C085002070471FB591
:100220000EF05DFB00F05AFE0400002000210DF0EE
:1002300043FF401C6060002000210DF027FFE060BC
:100240001FBD10B510BD00F0BDFF1146FFF7E7FF61
:100250000CF022F901F066FA03B4FFF7F2FF03BCD9
:1002600001F0BCFA0948804709480047FEE7FEE76D
:10027000FEE7FEE7FEE7FEE7FEE7FEE7FEE7FEE756
:1002800004480549054A064B70470000457C0008B4
:1002900089010008502D002050330020502F0020ED
:1002A000502F002053EA020C00F069802DE9F04B3A
:1002B0004FF00006002B1FBFB3FA83F503FA05F4D5
:1002C00024FA05F65E4012BF1643B2FA82F502FA2E
:1002D00005F4C5F120051EBF22FA05FC44EA0C0412
:1002E000203556EA044C4FEA144418BF641C4FF002
:1002F00000084FF00009904271EB030C39D300293C
:1003000019BFB1FA81F701FA07F6B0FA80F700FADF
:1003100007F6C7F120071EBF20FA07FC46EA0C06C5
:100320002037B6FBF4FCA7EB0507103F07F01F0BC7
:10033000CBF120062CFA06F60CFA0BFB44BFB346B1
:100340000026202FA4BF5E464FF0000B5BEA060C90
:1003500008BF4FF0010B19EB0B0948EB0608ABFB8C
:10036000027C06FB02CC0BFB03CCC01B71EB0C0127
:10037000C1E70B46024641464846BDE8F08B13B53F
:10038000084318BF4FF0FF300146AFF30080BDE8CF
:100390001C4070470FB41CB5074B06AA7B44694646
:1003A0000090059800F0CFFC0020694600F0DEFCCC
:1003B0001CBC5DF814FB0000CD09000070B50446BC
:1003C00085690068C10601D5302600E02026C007F7
:1003D00007D070BDD4E9012130469047206A401C07
:1003E00020626D1EF6D570BD70B504468569007833
:1003F000C00707D170BDD4E9012120209047206AB1
:10040000401C20626D1EF6D570BD70B50C460546C9
:10041000012A05D02878800600D5EA69002302E089
:10042000012305E05B1C934202D2E05C0028F9D175
:10043000A869E618C01AA861286A184428622846E4
:10044000FFF7BCFF04E0D5E9012114F8010B904748
:10045000B442F8D32846FFF7C7FF70BD2DE9F0413D
:100460000646002410687529314616A510D0AFF352
:100470000080002802DA404213A507E031688A07AD
:1004800001D512A502E0490704D511A5012401E018
:10049000AFF3008000210A2206F1240709E0B0FB37
:1004A000F2FCB0FBF2F302FB1C003030785418462B
:1004B000491C0028F3D123462A463046BDE8F041C6
:1004C00000F0D5B9000000002D0000002B00000056
:1004D0002000000070B504460D4621461068AFF3B9
:1004E00000802188090502D50F4A7A4402E00E4AAD
:1004F0007A440E32002104F1240305E000F00F06D7
:100500000009965D5E54491C0028F7D1207800232D
:10051000000704D5702D02D009B102231132204604
:10052000BDE8704000F0A3B91AE500002DE9F05FC6
:10053000894604464FF0000ADFF874B1FB44C0F866
:1005400020A02046E1688847002874D0252806D0DE
:10055000D4E901219047206A401C2062F1E700267F
:100560005F462046E16888472028054607DB312D95
:1005700005D2781910F8200C08B10643F1E7B0074E
:1005800001D526F00406C4F81CA00027C4F818A062
:100590002A2D09D028460DF02AFD38B304EB870830
:1005A000303DC8F8185019E059F8041B204604EBF8
:1005B00087029161E1688847012F054618D1E069FB
:1005C000002820DA26F020061DE0D8F8180000EBFD
:1005D000800005EB40003038C8F818002046E1687C
:1005E000884705460DF003FD0028EED1012F0AD003
:1005F0002E2D08D12046E16888477F1C0546022F32
:1006000046F02006C4DBA069002803DA404246F029
:100610000106A061F00701D026F010066C2D0BD06A
:10062000682D09D04C2D39D06A2D35D0742D35D098
:100630007A2D33D016E038E0E1682F46204688470F
:10064000B842054609D16C2F26D04FF48060E1688E
:10065000064320468847054604E06C2F1AD04FF425
:10066000807006430DB3A5F14100192802D820354A
:1006700046F400664A462946204626604E46FFF765
:10068000BDFD80B101280BD0F61D26F0070000F15A
:10069000080956E74020E4E78020D8E70020D6E7A5
:1006A00006F104094DE7284652E7206ABDE8F09FAD
:1006B000F0E4000070B5064600F0CAF8046805468C
:1006C00030460A22002100F0C5FB2C6070BD40EAD4
:1006D0000103024630B59B0710D14FF0013400E012
:1006E00008C208C91D1B9D4315EAC41FF8D013F0AA
:1006F000FF0102F8011B0DD01B0AF8E711F8013BBE
:10070000002B02F8013B05D011F8013B002B02F849
:10071000013BF3D130BD10B5431C02E010F8011BC2
:1007200071B18107FAD14FF0013202C88C1A8C43A3
:1007300014EAC211F9D0C01A0A0603D0C01E10BDB7
:10074000C01A10BD0A0401D0801E10BD0902FCD0E1
:10075000401E10BD10B5203AC0F00B80B1E8185013
:10076000A0E81850B1E81850A0E81850203ABFF49B
:10077000F5AF5FEA027C24BFB1E81850A0E818503A
:1007800044BF18C918C0BDE810405FEA827C24BF8E
:1007900051F8043B40F8043B08BF7047D20728BF1C
:1007A00031F8023B48BF11F8012B28BF20F8023B6B
:1007B00048BF00F8012B70474FF000020429C0F039
:1007C000128010F0030C00F01B80CCF1040CBCF183
:1007D000020F18BF00F8012BA8BF20F8022BA1EBD5
:1007E0000C0100F00DB85FEAC17C24BF00F8012BBA
:1007F00000F8012B48BF00F8012B70474FF00002B2
:1008000000B5134694469646203922BFA0E80C5006
:10081000A0E80C50B1F12001BFF4F7AF090728BFE1
:10082000A0E80C5048BF0CC05DF804EB890028BF5D
:1008300040F8042B08BF704748BF20F8022B11F086
:10084000804F18BF00F8012B704770477047704702
:10085000004870473000002010B5FFF7F9FF00682E
:1008600010BD10B50446FFF7F3FF046010BD2DE97D
:10087000F0470D4699469246044600F12408016867
:10088000880604D5E06921F01001216000E0012014
:10089000A84201DD471B00E00027A1697A1902EB9D
:1008A0000900081AA0612078C00602D42046FFF78C
:1008B00085FD002608E0D4E901211AF806009047DA
:1008C000206A401C761C20624E45F4DB2078C0066E
:1008D0000AD52046FFF772FD06E0D4E90121302059
:1008E0009047206A401C2062381EA7F10107F4DC03
:1008F00007E0D4E9012118F805009047206A401C60
:100900002062281EA5F10105F3DC2046FFF76CFDEF
:100910002078000602D50220BDE8F0870120FBE721
:100920002DE9FF4F0C461E464FF0FF378BB0D2E942
:100930000001DDF860800A908A46C1F30A5505B9C6
:100940003D46002108464FF00000BAF1000F00F4C8
:10095000400005DA00EB80004FF4400101EA50004E
:100960004FEA9059B9F1010F00DDB9460A9850EAF3
:100970004A000ED044F61050A5F2FF3545432F141F
:10098000B8F1000F1ED07542291E1EDDC9F100020C
:100990001CE0B8F1010F4FF0000001D0302103E05E
:1009A000F24305E02154401CB042FBDB30460022FC
:1009B000002121540B99C1F80880C1E900200FB033
:1009C000BDE8F08FBD1B6D1CDEE74A4600DA6942C8
:1009D00006A800F085FB06AB93E8070003AB83E8AD
:1009E000070050460A990CF082FD8DE80700A0F53B
:1009F00000501F3800900398002D0ADD42F21F01BD
:100A00004A460844002303A9039068460DF02EF8D7
:100A100009E0A0F500504A461F38002303A90390BF
:100A200068460DF04DF88DE807000004000C03D077
:100A30004FF0FF30410800E01046B8F1000F03D03E
:100A40000022009215461EE0751E05D400F04AFAF9
:100A5000303262556D1EF9D5B3460122084302D0EB
:100A600000227F1C04E02078302801D100227F1E64
:100A7000002A099784D01DE0112D07DA00F032FA20
:100A8000303262556D1C50EA0102F5D1084302D0A4
:100A90000098C8B10EE00021681E05E0235C625C8E
:100AA00063542254401E491C8142F7DBAB46A81B0D
:100AB000401E0990002004F80B000B98099AC0F81A
:100AC0000880C0E9002B7AE711264FF0000857E7AD
:100AD0002DE9F04F88460446D21D22F0070191B05F
:100AE000D1E90001CDE90A010DF036F902460B9873
:100AF000C00F01D02D2007E02068810701D52B20F1
:100B000002E0202101EAC000032A099001D0072A4F
:100B100005DB03464146204600F032FA0BE120781F
:100B2000800601D5E06900E00620B8F1650F814636
:100B300006D0B8F1660F18D0B8F1670F70D131E068
:100B40000020B9F1110F009001DB112301E009F140
:100B500001030AAA01A90CA8FFF7E2FEDDE90C7067
:100B6000002609F10105834647E001204B4600902D
:100B70004FF000470AAA01A90CA8FFF7D1FEDDE952
:100B80000DB00C995D46002610B909F101000D1851
:100B9000B9EB050003D4C0F1FF3609F10105A5EB5F
:100BA00009002BE0B9F1010F01DA4FF00109002033
:100BB000B9F1110F0090484601DD112300E0034612
:100BC0000AAA01A90CA8FFF7ABFEDDE90C704D469F
:100BD00000268346207800070AD4AB4500DA5D463C
:100BE00001A8012D04DD411911F8011C302907D09D
:100BF0004F4502DA17F1040F04DA012082460FE0B4
:100C00006D1EEEE7002F02DCED1B3E4403E0781C76
:100C1000A84200DD7D1CB81B00F1010A4FF000471F
:100C20002078000703D4AA4501DB4FF0FF3A0021EA
:100C3000B7F1004F0DF143088DF8431024D0022086
:100C40002B23002F01DA7F422D230A21021EA0F15F
:100C5000010000DC5FB197FBF1FC97FBF1F201FBB7
:100C60001C7C17460CF1300C08F801CDEEE7A8F11A
:100C7000010003702188090501D5452100E06521A7
:100C8000A0F1010800F8011C09980FA9A1EB0807C1
:100C9000FF1D00B10120411901EBEA70A169384440
:100CA000081A401EA0612078C00602D42046FFF733
:100CB00085FB099828B1D4E901219047206A401C9E
:100CC00020622078C00622D52046FFF777FB1EE081
:100CD000002E04DBB34502DD01A8805D00E030207A
:100CE000D4E901219047206A401C2062761CAAF1B9
:100CF00001005FEA000A0AD100F0F0F8C06801685C
:100D0000405CD4E901219047206A401C2062281EE3
:100D1000A5F10105DCDC07E0D4E9012118F8010B9D
:100D20009047206A401C2062381EA7F10107F3DCBF
:100D30002046FFF759FB032011B041E601694A1C28
:100D400002610878704700B58FB0CDE9013100210C
:100D5000059105497944CDE9031011466846FFF72E
:100D6000E5FB0FB000BD0000E5FFFFFF0A6802F8D9
:100D7000010B0A60704710B5436913B1AFF30080EF
:100D800001E0FFF742FB012010BD127800F12401C1
:100D90000A7000224A700122EDE711684FF0FF321D
:100DA000E9E700000FB40B0010B54FF000048AB063
:100DB0000FA900910E99CC60234C7C44234A7A44BD
:100DC000CDE9064200D004236FF00042CDE90132A4
:100DD0001F4A7A446B460892024600200DF0F6FD49
:100DE0000AB010BC5DF814FBF0B507464FF0FF30B9
:100DF0001E4615460C463B4685B06A460091CDE935
:100E0000010131460020049004A8FFF7CBFF0499AC
:100E10000346601825B109B1024600E022462A6067
:100E200000290ED0002B02DD0099814209D03B46FB
:100E30006A463146001B0094CDE9010404A8FFF77F
:100E4000B1FF05B0F0BD0000430200005D020000EC
:100E5000990100002DE9F04791460F46804604466F
:100E6000002614F8015B2DB100F030F80068405DF9
:100E7000C007F6D12B2D02D02D2D18D0641E4A4666
:100E80003946204600F0DCF827B13968A14201D18B
:100E9000C7F800804FF0020471050BD540420028CE
:100EA00003DDFFF7D5FC0460A007BDE8F08746F43A
:100EB0008066E4E70028F8DAFFF7CAFC04606FF008
:100EC0000040F2E7004870473000002010B500F005
:100ED00005F8001D10BD00BFE1D1000000487047BB
:100EE0005000002030B5B0F10A0271F100034FEA62
:100EF000900E4EEA817EB0EB0E0061EB91014FEA5D
:100F0000101E4EEA017E10EB0E0041EB11114FEA6C
:100F1000102E4EEA016E10EB0E0041EB11214FEA4C
:100F2000104E4EEA014E10EB0E0041EB11414018FD
:100F300041F100014FEAD00040EA41704FEAD1018F
:100F40004FEA810444EA907410EB800544EB0104FD
:100F50006D1944EB0404521BA3414FF0000348BF3A
:100F60000A3200D530BD401C41F1000130BD10B542
:100F70000446FFF7ABFF0068005D00F0010010BD04
:100F80002DE9F0411F46044603260168072A01F4B3
:100F9000006004DB08B116A505E016A503E008B162
:100FA00015A500E015A521F010002060A069C01E65
:100FB000A0610FB1401EA0612046FFF7FFF94FB1BD
:100FC000D4E9012138469047206A401C2062C01CA9
:100FD000206206E0206AFAE7D4E9012115F8010B46
:100FE0009047761EF8D22046FFF7FEF9BDE8F08163
:100FF0004E414E006E616E00494E4600696E6600BD
:10100000426842B1016811F8013B23B1521EC0E9A8
:101010000012184670470121C160881E704742685F
:101020005AB1C368016843B983688B4205D0491E31
:10103000521CC0E90012002070474FF0FF3070478B
:101040002DE9F05F824615468B4600270AF1010420
:10105000B9460078302801D09DB113E014F8010B97
:101060000127782803D0582801D045B10AE00DB1F6
:10107000102D07D1002714F8010B102502E00825D8
:1010800000E00A250026B0460EE005FB080005FB3F
:1010900006F101271FFA80F801EB1046B6F5803FF4
:1010A00000D3B94614F8010B294600F0B0F8002827
:1010B000EBDABBF1000F05D00FB1641E00E054461F
:1010C000CBF80040B9F1000F06D0FFF7C1FB0221B9
:1010D0000160C81EBDE8F09F48EA0640FAE700003C
:1010E0002DE9F047814616468AB0354878440DC848
:1010F0008DE80D0032487844801C03AC0DC884E8AC
:101100000D0041F69B300844372190FBF1F290FB33
:10111000F1F5A5F1800501FB12041B3C02D56442E8
:10112000012000E00020DFF898A080460027FA4464
:10113000AAF1BE0A0EE0E0070AD03246684607EB85
:10114000470101230AEB81010CF0BAFC8DE807008E
:1011500064107F1C002CEED1194F7F44AE3F19E084
:10116000E80715D007EB04100DF1180A90E80E00FF
:101170008AE80E00C068F04201D198190890324602
:10118000012306A903A80CF09BFC03AB83E807002E
:101190006D10641C002DE3D14FF001033246694607
:1011A000B8F1000F03A802D00CF060FC01E00CF0D5
:1011B00087FCC9E90001C9F808200AB0BDE8F0873A
:1011C000D0D900007546FFF77DFEAE4605006946A2
:1011D000534620F00700854618B020B5FFF750F8B9
:1011E000BDE820404FF000064FF000074FF0000828
:1011F0004FF0000BAC46ACE8C009ACE8C009ACE865
:10120000C009ACE8C00921F007018D4670473A28B3
:1012100000D2303820F02002412A01D3A2F1370059
:10122000884201D34FF0FF30704700002DE9FF4F97
:1012300006468BB00878FF2806D0491C2D2805D01B
:1012400000244FF0000908E000200CE00124F8E73A
:1012500009EB8903491C00EB43090878FF28F7D103
:1012600014B1C9F100008146107800252C46AA4629
:1012700029462D2801D02B2804D1521C2D2813D00B
:10128000002082468B461078FF280FD04FF0000CCC
:101290000A21521CA5FB017804FB018105FB0C11FE
:1012A000C5194BEB0104EEE70120EAE700210846EF
:1012B0004FF00000BAF1000F02D000EB80004008B0
:1012C000C0F38157012F01DD4FF0FF370E9955EA2A
:1012D000040009EB01080BD04FF0020918F5FA7F62
:1012E00016DA4FEACA70002F706008DD012007E0AF
:1012F0004FEACA70C6E900B00FB0BDE8F08F002019
:101300003060FFF7A5FAC0F800901821084616E0F3
:10131000B8F5FA7F18DD002F02DAF748784401E0CB
:10132000F6487844D0E90010C6E9001040EACA70D7
:101330007060FFF78DFAC0F80090142108460FB0D6
:10134000BDE8F04F0DF0DDBA002108464FF0000077
:10135000B8F10001099002DAC7F1000200E03A4654
:1013600001DAC8F1000106A8FFF7BAFE06AB93E860
:10137000070003AB83E8070044F23E005BEA040188
:101380000090584604D144F21E012C465D4600915F
:10139000210C0904014306D10099240444EA1544B0
:1013A0002D041039009104F07F41014306D10099CA
:1013B000240244EA15642D020839009104F07041BA
:1013C000014306D10099240144EA15742D01091F37
:1013D000009104F04041014306D10099A40044EA81
:1013E0009574AD00891E009104F00041084304D1BA
:1013F00000986D196441401E00904FF001033A4679
:101400006846B8F1000FCDE9014503A902DD0CF0F3
:101410006CFB01E00CF03FFBBAF1000F04460D46F7
:1014200001D084F00044002108464FF000000999E3
:1014300040F2FF77484010F00C0F07D124F0004035
:10144000284303D0C4F30A50B84212D1FFF700FA80
:10145000C0F80090C4F30A50B8420AD1A8487844B2
:10146000D0E90010C6E9001004F0004108437060A4
:1014700042E7C6E900543FE72DE9FF4F1F464FF012
:10148000000A4FF0FF38454691B0D7E90146CDF844
:101490003CA0FFF723FDC0680168405C1090B9696B
:1014A00012986D1C8847396A814688470028F6D112
:1014B000B9F1FF3F0AD0002E24F4D06411DDB9F158
:1014C0002B0F08D0B9F12D0F0BD102E0404615B01B
:1014D00013E744F48064B96912986D1C8847761E3E
:1014E0008146600504A901D52D2000E02B20002EA7
:1014F00001F1010B0DF130088DF810003FDDB9F15D
:10150000690F08D0B9F1490F05D0B9F16E0F02D0BB
:10151000B9F14E0F1CD13B4601A8009580E850025E
:10152000DDE912126FF002000DF054FAC11CCED1A9
:101530000EE0B96912986D1C884781461398761E93
:1015400044F4007405600F98401C002E0F9016DDC7
:10155000B9F1300FEDD0B9F1780F02D0B9F1580FD1
:101560000DD10F9801280AD13B46CDE90054DDE9A1
:101570001212001F02960DF02BFAC11CA7D1109970
:1015800089453ED144F0800406E01399681CAAF115
:10159000010A44F400740860B9696D1C1298761E43
:1015A000884730288146F0D02BE01099894505D135
:1015B000200603D4761E44F0800418E048460CF060
:1015C00016FD08B3761E0DF123029345A9F13000F4
:1015D00044F4007406D20BF8010B200607D5AAF1DB
:1015E000010003E0200602D40AF101008246A005B2
:1015F00002D51399681C0860B96912986D1C884758
:101600008146002ED1DC53E0002E51DDB9F1650F8B
:1016100002D0B9F1450F4BD1A00549D5B9696D1C70
:101620001298761E24F440748847002E81460CDD03
:101630002B2804D0B9F12D0F07D144F48074B96977
:1016400012986D1C8847761E8146E00501D52D2134
:1016500000E02B2108F8011BCDF8008021E0761E68
:101660000DF13901884544F400740CD2A9F1300021
:1016700010F0FF0088F8000002D10099884509D9D0
:1016800008F1010806E0E00501D51E4801E042F23C
:101690000F708246B96912986D1C8847814613986D
:1016A0000560002E04DD48460CF0A1FC0028D6D1D0
:1016B000F96912988847FF2053468BF8000088F894
:1016C000000000200A900B9004AA0CA90AA8FFF7BA
:1016D000ADFDA00502D46FF00100F8E614F0240F70
:1016E00012D0E0071CD13868DDE90A12031D3B6007
:1016F0000068C0E9001213E034FC000026FC000082
:10170000EAFA0000F1D8FFFF0AA968460CF05CFC79
:10171000E00705D13868009A011D39600068026051
:101720002846D4E610B50446AFF300802046BDE855
:101730001040FEF791BD000030B44FF0013C50F86E
:10174000042B51F8043BCCFA52F4D51A20D1FCB941
:1017500050F8042B51F8043BCCFA52F4D51A17D1A7
:10176000B4B950F8042B51F8043BCCFA52F4D51A12
:101770000ED16CB950F8042B51F8043BCCFA52F45A
:10178000D51A05D1002CDAD030BC4FF000007047DC
:1017900029BAB1FA81F111F01801D1F12000844089
:1017A000F2D1CA40CB4012F0FF0213F0FF0330BC6D
:1017B000D01A7047B2F120030AD5C2F1200301FA12
:1017C00002F120FA03F341EA030100FA02F0704744
:1017D00000FA03F14FF000007047000001491820A3
:1017E000ABBEFEE7260002002DE9FF4F1F464FF07B
:1017F0003C0987B04FF00042DDE9141001F1010807
:10180000DDF858A002EA405003900020059083467E
:10181000054604460490B969461E08988847AAF10F
:10182000010A0290BAF1000F3BDD02982E2815D074
:101830001021FFF7ECFC00282EDB4FF0010B05997F
:10184000014317D0B9F1000F0BDB4A46C117FFF770
:10185000B1FF05430C43A9F1040905E00120049000
:101860000BE008B145F0010501200590049820B96E
:10187000361D02E0049800B1361FB969089808F1D6
:1018800001088847BBF1000FAAF1010A0290C9D0F4
:101890000999C1F80080C5E70298702808D050283F
:1018A00006D0F96908988847BBF1000F14D04FE0C3
:1018B000002002900120BBF1000F049009D0B9690B
:1018C000089808F101088847AAF10109B9F1000F49
:1018D00007DCF969089888476FF001000BB0BDE894
:1018E000F08F2B2804D02D280CD14FF0FF3004901E
:1018F000B969089808F101088847A9F10109B9F107
:10190000000FE6DD411CE4D00A21FFF780FC00282F
:10191000DFDB029908F1010801EB810100EB4100D6
:101920000290B969089888470A21FFF770FC099A64
:10193000A9F10109B9F1000FC2F8008001DD00280A
:10194000E7DAF969089888470499029800FB01666C
:1019500055EA040004D004F04041090002D006E03A
:10196000039898E0A40044EA9574AD00B61E04F014
:101970000041080002D16D196441761E159810F0DF
:10198000240F03D04FF00B095C4803E04FF0280907
:101990006FF07D008246564507DAAAEB06018944BE
:1019A000B9F1410F01DD4FF0410901200021A9F1FA
:1019B0000102FFF7FFFE024628400B462140084384
:1019C00001D0012100E00021501E029143F1FF31BE
:1019D00028402140084301D0012000E00020029966
:1019E000834651EA0B014FD0002108464FF000001A
:1019F000039900F4400039B100EB80004FF440013E
:101A000000EBD07001EA60008015012802DD4FF084
:101A1000FF3000E013D0401C36D0029860B3BBF119
:101A2000000F0CD14A4601200021FFF7C3FE2840D9
:101A30002140084301D0012000E00020E0B1012056
:101A40004A460021FFF7B6FE034640190A466141A7
:101A50002D1A8C4111D3B9F1400F09DD159810F002
:101A6000240F02D0AAF1340603E0AAF1170600E021
:101A7000761C00254FF0004406E05B1E42F1FF3269
:101A800020EA030521EA0204CAF10100B04206DAA5
:101A90001B49039808430190002000900EE0039A30
:101AA000C4F3D321E80A0A43164940EA44500A43E2
:101AB0003146CDE9000268460CF08FFA159810F017
:101AC000240F0BD01598C00715D13868DDE9001236
:101AD000031D3B600068C0E900120CE002A86946E3
:101AE0000CF072FA1598C00705D13868029A011DEA
:101AF0003960006802604046F0E6000002FCFFFF2B
:101B00000000F07F0000F03F2DE9FF4F92461D4698
:101B100085B04FF00041DDE9124BDDE914727F1E04
:101B200001EA4B50414940F0FF4940EA01080021D9
:101B300022F020004928049102D04E2828D04CE001
:101B40003BA0012607C88DE80700A9690698641C18
:101B500088477F1E014606D41DF8060018B121F003
:101B6000200181420BD0E96906988847032E34D0C2
:101B7000082E32D06FF0010009B0BDE8F08F761C5E
:101B8000032E01D0082EE0D1601CCAF80000DCE76B
:101B9000A9690698641C88477F1E2AD420F020007B
:101BA000412826D1A9690698641C88477F1E20D445
:101BB00020F020004E281CD1A9690698641C884793
:101BC0007F1E48F4002849F48009CAF8004001D477
:101BD000282806D0E969069888475FEACB7012D0BA
:101BE00022E0A9690698641C88477F1E01D400285A
:101BF00003DAE96906988847BCE72928F1D1641C13
:101C0000CAF80040E9E71BF0240F07D028680499C0
:101C1000031D2B600068C0E9001805E02868021D5C
:101C20002A600068C0F800902046A5E70000F07F19
:101C3000494E46494E495459000000007047000083
:101C4000FEE7000000281EBF012000F001007047E1
:101C50002DE9F04F83B040F2980840F23C14C2F2F4
:101C6000000840F62A5901254FF0000AC2F200048C
:101C700008F15A0BC0F60109002700BF42F61C46C6
:101C8000C2F2000640F224013046C2F200010822EE
:101C90004FF47A7384F818A0C4E900AAC4E902AA30
:101CA000C4E904AA03F000FF3046214619224FF48C
:101CB0007A7303F019FE0720019042F67030C2F2E9
:101CC0000000D021002201234FF47A76CDF800B035
:101CD000029602F055F898F85A0098F85B10060939
:101CE00006EB860600F00F0000EB460088F80000C7
:101CF000080998F85C2000EB800001F00F0101EB6F
:101D0000400088F80100100998F85D3000EB800071
:101D100002F00F0101EB400088F80200180900EB07
:101D2000800003F00F0101EB400098F85E1088F886
:101D30000300080900EB800001F00F0101EB4000F7
:101D400098F85F1088F80400080900EB800001F0A3
:101D50000F01227801EB400098F8601082F0FF023A
:101D600088F805000809637839F8122000EB800034
:101D700001F00F0101EB400083EA0201C943C9B23F
:101D800039F81110A37881EA12225A40D2B239F8F8
:101D90001220E37882EA11215940C9B239F81110B2
:101DA000237981EA12225A40D2B239F8122063799B
:101DB00082EA11215940C9B239F81110A37981EA98
:101DC00012225A40D2B239F81220E37982EA112164
:101DD0005940C9B239F81110237A81EA12225A40C7
:101DE000D2B239F81220637A82EA11215940C9B27D
:101DF00039F81110A37A81EA12225A40D2B239F886
:101E00001220E37A82EA11215940C9B239F811103F
:101E1000237B81EA12225A40D2B239F81220637B26
:101E200082EA11215940C9B239F81110A37B81EA25
:101E300012225A40D2B239F81220E37B82EA1121F1
:101E40005940C9B239F81110237C81EA12225A4054
:101E5000D2B239F81220637C82EA11215940C9B20A
:101E600039F81110A37C81EA12225A40D2B239F813
:101E70001220E37C82EA11215940C9B239F81110CD
:101E8000237D81EA12225A40D2B239F81220637DB2
:101E900082EA11215940C9B239F81110A37D81EAB3
:101EA00012225A40D2B239F81220B4F8173082EA1E
:101EB00011218B4288F8060013D0022D05F101058F
:101EC0004FF0000788BF0127042D7FF4D7AE42F6FC
:101ED000A440C2F2000007A10A224FF4FA6303F003
:101EE000E3FD87F0010003B0BDE8F04F00F0010012
:101EF000704700BF4552524F52204352430A0000E0
:101F000010B540F23C10C2F20000017859B1821CB9
:101F100012F8013C3BB113782BB153781BB1937885
:101F20000432002BF4D14278842A00F0B380042AD2
:101F300040F0C28081F0FF0240F62A51C0F6010154
:101F400031F812208478D3B283F0FB0331F81330D8
:101F500083EA12226240D2B231F81220C47882EAB7
:101F600013236340DBB231F81330047983EA122281
:101F70006240D2B231F81220447982EA13236340DE
:101F8000DBB231F81330847983EA12226240D2B294
:101F900031F81220C47982EA13236340DBB231F8AE
:101FA0001330047A83EA12226240D2B231F812204E
:101FB000447A82EA13236340DBB231F81330847A27
:101FC00083EA12226240D2B231F81220C47A82EA45
:101FD00013236340DBB231F81330047B83EA12220F
:101FE0006240D2B231F81220447B82EA132363406C
:101FF000DBB231F81330847B83EA12226240D2B222
:1020000031F81220C47B82EA13236340DBB231F83B
:102010001330047C83EA12226240D2B231F81220DB
:10202000447C82EA13236340DBB231F81330847CB2
:1020300083EA12226240D2B231F81220C47C82EAD2
:1020400013236340DBB231F81330047D83EA12229C
:102050006240D2B231F81220447D82EA13236340F9
:10206000DBB231F81330847D83EA12226240D2B2AF
:1020700031F81210B0F8170081EA1321884204D019
:1020800000200024FFF7DEFD30B30120BDE8104042
:1020900000F026B842F6A4404EF6D761C2F2000026
:1020A000C0F6000137224FF4FA6303F0FDFC01F0A3
:1020B00055FA012010BD00BF42F6A4404EF67751FC
:1020C000C2F20000C0F6000139224FF4FA6303F0B7
:1020D000EBFC01F043FA0124204610BD0000000093
:1020E0002DE9F04F81B02DED108B94B0002800F059
:1020F0009D8040F23C1BC2F2000BBBF8030040BACB
:102100000CF0F9F99FED5E0B5AEC107B3A46534602
:102110000CF02EF80BF0E6FFBBF805100DEE100AE0
:10212000CBF81C0048BA9BF807109BF8082040EA3F
:1021300001609BF80B809BF80C9040EA02400CF089
:10214000DAF99FED510B55EC106B32462B460CF033
:102150000FF80BF0C7FFBBF809100EEE100ACBF812
:10216000200048BA40EA086040EA09400CF0C3F990
:102170003A4653460997CDF820A00BF0F9FF0BF033
:10218000B1FFBBF80D100FEE100ACBF8240048BACF
:102190009BF80F109BF8102040EA016040EA0240D3
:1021A0000CF0A9F932462B46079606950BF0E0FF96
:1021B0000BF098FFBBF8131008EE900ACBF828003C
:1021C00048BA0CF098F99FED320B53EC102BCDE987
:1021D00004320BF0CDFF0BF085FF9FED2F8A00EE50
:1021E000100AB4EE48DAF1EE10FACBF8300027DC32
:1021F0009FED2A1AB4EE41EAF1EE10FA20DC9FEDD1
:10220000281AB4EE41FAF1EE10FA19DC9FED251A06
:10221000F4EE418AF1EE10FA12DCB7EE001AB4EED9
:10222000410AF1EE10FA0BDC012000E0002000F082
:10223000010014B0BDEC108B01B0BDE8F08F00BF01
:1022400040F2980142F61C4940F22407C2F2000114
:1022500040F62A589FED119A9FED11AA9FED11BAF1
:10226000012004220026C2F20009C2F200074FF446
:102270007A755A31C0F60108B7EE00CA11912AE00A
:1022800000000000000024400000000000408F40DB
:102290000000000000005940000082430000C842D6
:1022A00000B0B346003C1C469BED07DA9BED08EA04
:1022B0009BED09FADBED0A8A9BED0C0A40F224073C
:1022C0004FF47A755246C2F200070026581AB0FA47
:1022D00080F04009013AB4EE48DAF1EE10FA13DC6E
:1022E000B4EE49EAF1EE10FA0EDCB4EE4AFAF1EE81
:1022F00010FA09DCF4EE4B8AF1EE10FA04DCB4EECD
:102300004C0AF1EE10FA92DD002A00F0DB819246D1
:102310004846394608224FF47A738BF81860CBE9A7
:102320000066CBE90266CBE9046603F0BDFB4846D4
:10233000594619224FF47A7303F0D6FA1198D02136
:1023400000900720019042F67030C2F20000002297
:102350000123029501F014FD40F29805C2F2000538
:1023600095F85A0095F85B10070907EB870700F00E
:102370000F0000EB47002870080995F85C2000EB7F
:10238000800001F00F0101EB40006870100995F822
:102390005D3000EB800002F00F0101EB4000A870FF
:1023A000180900EB800003F00F0101EB400095F8E5
:1023B0005E10E870080900EB800001F00F0101EBEE
:1023C000400095F85F102871080900EB800001F0CB
:1023D0000F019BF8002001EB400095F8601082F09F
:1023E000FF02687108099BF8013038F8122000EBF1
:1023F000800001F00F0101EB400083EA0201C943B4
:10240000C9B238F811109BF8023081EA12225A4002
:10241000D2B238F812209BF8033082EA11215940D9
:10242000C9B238F811109BF8043081EA12225A40E0
:10243000D2B238F812209BF8053082EA11215940B7
:10244000C9B238F811109BF8063081EA12225A40BE
:10245000D2B238F812209BF8073082EA1121594095
:10246000C9B238F811109BF8083081EA12225A409C
:10247000D2B238F812209BF8093082EA1121594073
:10248000C9B238F811109BF80A3081EA12225A407A
:10249000D2B238F812209BF80B3082EA1121594051
:1024A000C9B238F811109BF80C3081EA12225A4058
:1024B000D2B238F812209BF80DC082EA112181EACD
:1024C0000C01C9B238F811109BF80EE081EA122213
:1024D00082EA0E02D2B238F812209BF80F6082EA2C
:1024E00011217140C9B238F8111012939BF81030C5
:1024F00081EA12225A40D2B238F8122013939BF884
:10250000113082EA11215940C9B238F811109BF8F4
:10251000123081EA12225A40D2B238F812209BF8C7
:10252000137082EA11217940C9B238F811109BF872
:10253000144081EA12226240D2B238F812209BF88D
:10254000153082EA11215940C9B238F811109BF8B0
:10255000163081EA12225A40D2B238F81220BBF863
:10256000173082EA11218B42A8717FF49DAE0AA830
:1025700080E80A04BBF80300CDF838C040BA1097D1
:1025800077460F940D960BF0B6FF099EDDF820A05C
:10259000324653460BF0ECFD0BF0A4FDBBF80510E2
:1025A0000DEE100ACBF81C0048BA9BF807109BF8F8
:1025B000082040EA01609BF80B9040EA02400BF0D3
:1025C0009AFF079D069C2A4623460BF0D1FD0BF08F
:1025D00089FDBBF809100EEE100ACBF8200048BAAE
:1025E000129940EA096040EA01400BF084FF32464C
:1025F00053460BF0BDFD0BF075FD0FEE100ACBF846
:1026000024000E980D9947EA002040EA01601399D2
:1026100040EA01400BF06FFF2A4623460BF0A8FD6D
:102620000BF060FD08EE900ACBF82800DDE90F10F2
:1026300041EA00200BF05FFFDDE904320BF098FD6A
:102640000BF050FDB4EE48DA00EE100AF1EE10FA8D
:10265000CBF8300026DCB4EE49EAF1EE10FA21DCCA
:10266000B4EE4AFA0C9A42F61C4940F22407DDE91E
:102670000A13F1EE10FA4FF00006C2F20009C2F29E
:1026800000074FF47A753FF721AEF4EE4B8AF1EE76
:1026900010FA3FF71BAEB4EE4C0AF1EE10FA3FF71A
:1026A00015AE1BE00C9A42F61C4940F22407DDE906
:1026B0000A130026C2F20009C2F200074FF47A752D
:1026C00004E600BF42F6A440C2F2000004A11322B7
:1026D0004FF4FA6303F0E8F90020A8E50120A6E52D
:1026E0004552524F52204769612054726920507AF6
:1026F000656D0A00B0B584B040F29804C2F20004DF
:10270000072004F15A01CDE9001042F670304FF471
:102710007A75C2F20000D02100220123029501F057
:102720002FFB94F85A1094F85B200D0905EB8505F2
:1027300001F00F0101EB45012170110994F85C30A3
:1027400001EB810102F00F0202EB410161701909F6
:1027500001EB810103F00F0202EB410194F85D20CF
:10276000A170110901EB810102F00F0202EB41019E
:1027700094F85E20E170110901EB810102F00F0273
:1027800002EB410194F85F20607A130903EB8303A5
:1027900002F00F0202EB430294F8603062711A09F2
:1027A00002EB820203F00F0303EB420200292171C6
:1027B000A27118BF814257D12179A079002940D058
:1027C000627A91423DD117283BD36279CAB3E37A4A
:1027D0009A4236D0217206F0A3F82079607206F092
:1027E0005FFC0025E56206F053FD206B606305F099
:1027F000EFFF606AA06206F05BF9E07AA07206F073
:102800001DFA6079E07205F035FC227AA37A40F275
:102810009A6104F14C00C0F60101FDF7BBFD06F022
:102820009FFB03F0BFFE656205F026FB94ED090AED
:1028300094ED0B1A30EE410A84ED0C0A05F01CFFF2
:10284000A079172809D3217B884206D0617306F04E
:10285000BFFAA079207305F0D5FC0020C4F85D0014
:10286000C4F85A0004B0B0BD172AA5D3207206F0F0
:1028700057F82079607206F013FC6079E17AC8B1EC
:10288000884217D1606AE06206F002FD206B606347
:1028900005F09EFF227AE37A40F29A6104F14C003F
:1028A000C0F60101FDF776FD06F05AFB0020A4F802
:1028B000510029E0002818BF88423FF47DAF002571
:1028C000E56206F0E5FC206B606305F081FF606A5D
:1028D000A06206F0EDF8E07AA07206F0AFF9607938
:1028E000E07205F0C7FB227AA37A40F29A6104F104
:1028F0004C00C0F60101FDF74DFD06F031FB03F081
:1029000051FE656205F0B8FA94ED090A94ED0B1AD0
:1029100030EE410A84ED0C0A05F0AEFE4CE70000F3
:10292000704700002DE9F04381B0642001F01EF8EB
:1029300040F6B424C2F2000440F61F11C0F60101B3
:102940002046012208F0DEF840F29809C2F20009A0
:1029500089F80700B0B142F6E844C2F2000402462A
:102960000FF614212046FDF715FD2046FDF7D3FE96
:1029700082B242F6A440C2F200002146C82303F00E
:1029800093F88CE042F6E846C2F2000640F2576146
:10299000C0F60101304600220025FDF7FBFC304661
:1029A000FDF7B9FE42F6A448C2F2000882B24046E2
:1029B0003146C82303F078F809F161063046142146
:1029C000224607F03DFE30460BF05AFA51EC100B50
:1029D0000BF088FBC9F824003046FDF79CFEC2B21C
:1029E000404631464FF4FA6303F05EF8E068A169AF
:1029F000C9F861508142C9F86550C9F86950C9F8F1
:102A00006D50C9F871500AD142F6A440C2F20000DC
:102A10000FF6A01121224FF4FA6303F045F8607D10
:102A200060B142F6A4404EF61651C2F20000C0F664
:102A3000000129224FF4FA6303F036F840F6B4207F
:102A4000C2F2000007F044FD99F8072042F6E84082
:102A5000C2F2000022B140F22D41C0F6010104E0B3
:102A600040F26941C0F601010022FDF793FC42F6F5
:102A7000E844C2F200042046FDF74DFE82B242F661
:102A8000A440C2F200002146C82303F00DF840F232
:102A90003C10C2F2000038303C21FDF7AFFE64204C
:102AA00000F064FF40F6B424C2F2000440F6622154
:102AB000C0F601012046012208F024F8002889F818
:102AC000070055D100204D4645F8610F2861E860A8
:102AD000A860686028461421224607F0B1FD284608
:102AE0000BF0CEF951EC100B0BF0FCFA45F8390C59
:102AF0002846FDF710FEC2B242F6A440C2F2000022
:102B000029464FF4FA6302F0CFFFE068A1698142E1
:102B10000CD142F6A4404FF27F21C2F20000C0F671
:102B2000000135224FF4FA6302F0BEFF607D60B110
:102B300042F6A4404FF2B521C2F20000C0F60001F7
:102B40003D224FF4FA6302F0AFFF40F6B420C2F228
:102B5000000007F0BDFC89F807000020C9F86100FB
:102B6000C9F86500C9F86900C9F86D00C9F87100B5
:102B7000642000F0FBFE40F6B424C2F2000440F6EC
:102B8000D411C0F601012046012207F0BBFF002846
:102B900089F8070051D100204D4645F8610F2861A2
:102BA000E860A860686028461421224607F048FDC6
:102BB0002846FDF77FFD05F8590C2846FDF7ABFDCB
:102BC000C2B242F6A440C2F2000029464FF4FA63B2
:102BD00002F06AFFE068A16981420CD142F6A4408C
:102BE0004EF6F351C2F20000C0F6000129224FF464
:102BF000FA6302F059FF607D60B142F6A4404EF6E0
:102C00000F71C2F20000C0F6000123224FF4FA63F4
:102C100002F04AFF40F6B420C2F2000007F058FC70
:102C200089F807000020C9F86100C9F86500C9F8F3
:102C30006900C9F86D00C9F87100642000F096FEC3
:102C400040F6B424C2F2000440F62E21C0F6010181
:102C50002046012207F056FF002889F807004FD1CF
:102C600000204D4645F8610F2861E860A860686063
:102C700028461421224607F0E3FC2846FDF71AFDFA
:102C800005F8580C2846FDF746FDC2B242F6A440AE
:102C9000C2F2000029464FF4FA6302F005FFE06833
:102CA000A16981420AD142F6A440C2F200000FF2AB
:102CB000287121224FF4FA6302F0F6FE607D60B1C4
:102CC00042F6A4404EF60F71C2F20000C0F60001B9
:102CD00023224FF4FA6302F0E7FE40F6B420C2F27A
:102CE000000007F0F5FB89F807000020C9F8610033
:102CF000C9F86500C9F86900C9F86D00C9F8710024
:102D0000642000F033FE40F6B424C2F2000440F622
:102D1000E611C0F601012046012207F0F3FE00286B
:102D200089F8070051D100204D4645F8610F286110
:102D3000E860A860686028461421224607F080FCFD
:102D40002846FDF7B7FC05F8570C2846FDF7E3FCCD
:102D5000C2B242F6A440C2F2000029464FF4FA6320
:102D600002F0A2FEE068A16981420CD142F6A440C3
:102D70004EF61D61C2F20000C0F600012A224FF497
:102D8000FA6302F091FE607D60B142F6A4404EF617
:102D90004861C2F20000C0F6000132224FF4FA632B
:102DA00002F082FE40F6B420C2F2000007F090FB71
:102DB00089F807000020C9F86100C9F86500C9F862
:102DC0006900C9F86D00C9F87100642000F0CEFDFB
:102DD00040F6B424C2F2000440F6F911C0F6010135
:102DE0002046012207F08EFE002889F8070051D105
:102DF00000204D4645F8610F2861E860A8606860D2
:102E000028461421224607F01BFC2846FDF752FCF9
:102E100005F8560C2846FDF77EFCC2B242F6A440E7
:102E2000C2F2000029464FF4FA6302F03DFEE0686A
:102E3000A16981420CD142F6A4404EF67B61C2F2F8
:102E40000000C0F6000129224FF4FA6302F02CFEC4
:102E5000607D60B142F6A4404EF6A561C2F200006A
:102E6000C0F6000131224FF4FA6302F01DFE40F675
:102E7000B420C2F2000007F02BFB89F80700002005
:102E8000C9F86100C9F86500C9F86900C9F86D00A2
:102E9000C9F87100642000F069FD40F6B424C2F264
:102EA000000440F60B21C0F601012046012207F084
:102EB00029FE002889F8070051D100204D4645F829
:102EC000610F2861E860A8606860284614212246E6
:102ED00007F0B6FB2846FDF7EDFB05F8540C284635
:102EE000FDF719FCC2B242F6A440C2F20000294626
:102EF0004FF4FA6302F0D8FDE068A16981420CD179
:102F000042F6A4404EF63371C2F20000C0F6000152
:102F100029224FF4FA6302F0C7FD607D60B142F6EA
:102F2000A4404EF65D71C2F20000C0F600013122ED
:102F30004FF4FA6302F0B8FD40F6B420C2F200008C
:102F400007F0C6FA89F807000020C9F86100C9F83F
:102F50006500C9F86900C9F86D00C9F871006420FE
:102F600000F004FD40F6B424C2F2000440F61D2136
:102F7000C0F601012046012207F0C4FD002889F8AF
:102F8000070051D100204D4645F8610F2861E860E7
:102F9000A860686028461421224607F051FB2846A5
:102FA000FDF788FB05F8550C2846FDF7B4FBC2B2C7
:102FB00042F6A440C2F2000029464FF4FA6302F040
:102FC00073FDE068A16981420CD142F6A4404EF63F
:102FD0008F71C2F20000C0F6000128224FF4FA639C
:102FE00002F062FD607D60B142F6A4404EF6B87119
:102FF000C2F20000C0F6000130224FF4FA6302F082
:1030000053FD40F6B420C2F2000007F061FA89F8DF
:1030100007000020C9F86100C9F86500C9F8690017
:10302000C9F86D00C9F87100642000F09FFC40F6FB
:10303000B424C2F2000440F69811C0F60101204603
:10304000012207F05FFD002889F8070055D1002014
:103050004D4645F8610F2861E860A8606860284621
:103060001421224607F0ECFA28460AF009FF51EC39
:10307000100B0BF037F845F8350C2846FDF74BFBE5
:10308000C2B242F6A440C2F2000029464FF4FA63ED
:1030900002F00AFDE068A16981420CD142F6A44029
:1030A0004FF23311C2F20000C0F6000157224FF474
:1030B000FA6302F0F9FC607D60B142F6A4404FF281
:1030C0008B11C2F20000C0F600015F224FF4FA63D8
:1030D00002F0EAFC40F6B420C2F2000007F0F8F972
:1030E00089F807000020C9F86100C9F86500C9F82F
:1030F0006900C9F86D00C9F87100642000F036FC61
:1031000040F6B424C2F2000440F66C11C0F601018E
:103110002046012207F0F6FC002889F8070055D167
:1031200000204D4645F8610F2861E860A86068609E
:1031300028461421224607F083FA28460AF0A0FE0A
:1031400051EC100B0AF0CEFF45F82D0C2846FDF788
:10315000E2FAC2B242F6A440C2F2000029464FF49D
:10316000FA6302F0A1FCE068A16981420CD142F649
:10317000A4404FF29B01C2F20000C0F600014722BA
:103180004FF4FA6302F090FC607D60B142F6A44017
:103190004FF2E301C2F20000C0F600014F224FF4EB
:1031A000FA6302F081FC40F6B420C2F2000007F09E
:1031B0008FF989F807000020C9F86100C9F8650097
:1031C000C9F86900C9F86D00C9F87100642000F001
:1031D000CDFB40F6B424C2F2000440F63311C0F631
:1031E00001012046012207F08DFC002889F8070024
:1031F00053D100274D4645F8617F284614212246C9
:103200002F61EF60AF606F6007F01AFAA5F1150645
:1032100030462946FDF75BFA25F8107CFDF77BFA6E
:10322000C2B242F6A440C2F2000031464FF4FA6343
:1032300002F03AFCE068A16981420CD142F6A44058
:103240004EF6E971C2F20000C0F6000154224FF4BC
:10325000FA6302F029FC607D60B142F6A4404FF2AF
:103260003E01C2F20000C0F600015C224FF4FA6396
:1032700002F01AFC40F6B420C2F2000007F028F970
:1032800089F807000020C9F86100C9F86500C9F88D
:103290006900C9F86D00C9F87100642000F066FB90
:1032A00040F6B424C2F2000440F63821C0F6010111
:1032B0002046012207F026FC89F8070010B101B072
:1032C000BDE8F08300204D4645F8610F2861E860B5
:1032D000A860686028461421224607F0B1F9284604
:1032E0000AF0CEFD51EC100B0AF0FCFE45F8310C53
:1032F0002846FDF710FAC2B242F6A440C2F200001E
:1033000029464FF4FA6302F0CFFBE068A1698142DD
:103310000CD142F6A4404FF2EB11C2F20000C0F60D
:10332000000145224FF4FA6302F0BEFB607D60B1FC
:1033300042F6A4404FF23121C2F20000C0F6000173
:103340004D224FF4FA6302F0AFFB40F6B420C2F214
:10335000000007F0BDF889F807000020C9F86100F7
:10336000C9F86500C9F86900C9F86D00C9F87100AD
:1033700001B0BDE8F08300BF4552524F5220665F56
:103380006F70656E2066696C6531202D20646F63F7
:1033900020616C6C206461746120747520656570B7
:1033A000726F6F6D2C2066726573756C743A202590
:1033B000640A0000665F656F662044612064656E84
:1033C0002063756F69207461702074696E2066696E
:1033D0006C65312E0A000000665F656F66204461EF
:1033E0002064656E2063756F692074617020746954
:1033F0006E20746F6461792E0A000000012000F0D5
:1034000017BB000080B540F65013C2F200035A7A91
:10341000002A1CBF012080BD93F809C08646002009
:1034200003F80C005A7A03EB8202C2F804E05A7ADD
:103430001A44107293F809C00CF101025A720CF18F
:1034400030020A7042F63A72A1F80120C87080BDBD
:103450002DE9F04194B040F298054FF4FA60C2F2C1
:103460000005072105F15A02029042F67030CDE9BD
:103470000021C2F20000D021002201234FF00008F9
:1034800000F07EFC95F85A0095F85B10040904EBF7
:10349000840400F00F0095F85C2000EB44000C0958
:1034A00004EB840401F00F0195F85D3001EB440159
:1034B000140904EB840402F00F0202EB44021C091D
:1034C00004EB840403F00F0303EB440395F85E4020
:1034D000EB70230903EB830304F00F0404EB4304B4
:1034E00095F85F3028701E0906EB860603F00F037F
:1034F00003EB460695F8603069701F0907EB8707F4
:1035000003F00F0303EB4707CBB2C0B2E1B22C715B
:103510006E71F6B28DE8430040F2A56105ACAA7069
:10352000AF71D2B2FFB2C0F6010120460397FCF79B
:1035300031FF2046FDF7EFF882B242F6A440C2F216
:10354000000021464FF4FA6302F0AEFAC5F85A8043
:10355000C5F85D8014B0BDE8F081000070B586B09C
:1035600040F23C1442F61C45C2F200040020C2F2B4
:10357000000540F224012076C4E90000C4E90200FD
:10358000C4E90400C2F20001284608224FF47A730D
:1035900002F08AFA2846214619224FF47A7302F083
:1035A000A3F9207858B1A01C10F8011C39B101789A
:1035B00029B1417819B1817804300029F4D16578B6
:1035C00040F2966101AEC0F6010130462A46FCF792
:1035D000E1FE3046FDF79FF882B242F6A440C2F207
:1035E00000003146C82302F05FFA842D04D0042D78
:1035F0000CD16178ADE000BF42F6A4404EF6D76131
:10360000C2F20000C0F60001372208E042F6A440F2
:103610004EF67751C2F20000C0F6000139224FF495
:10362000FA6302F041FA42F61C450020C2F200059E
:1036300040F224012076C4E90000C4E90200C4E994
:103640000400C2F20001284608224FF47A7302F007
:103650002BFA2846214619224FF47A7302F044F9D6
:103660006078042874D084280AD142F6A4404EF62B
:10367000D761C2F20000C0F60001372209E000BFA6
:1036800042F6A4404EF67751C2F20000C0F60001A7
:1036900039224FF4FA6302F007FA42F61C45002083
:1036A000C2F2000540F224012076C4E90000C4E91A
:1036B0000200C4E90400C2F20001284608224FF4C7
:1036C0007A7302F0F1F92846214619224FF47A73F1
:1036D00002F00AF9607804283AD084280AD142F628
:1036E000A4404EF6D761C2F20000C0F600013722B6
:1036F00009E000BF42F6A4404EF67751C2F2000046
:10370000C0F6000139224FF4FA6302F0CDF942F617
:103710001C46C2F2000640F224010025C2F200015C
:10372000304608224FF47A732576C4E90055C4E97F
:103730000255C4E9045502F0B7F930462146192272
:103740004FF47A7302F0D0F86078042840F0B1802A
:1037500004212078A37880F0FF0240F62A50C0F6BA
:10376000010030F812205140C943C9B230F811109D
:1037700081EA12225A40D2B230F81220E37882EA6B
:1037800011215940C9B230F81110237981EA12226F
:103790005A40D2B230F81220637982EA112159409E
:1037A000C9B230F81110A37981EA12225A40D2B27C
:1037B00030F81220E37982EA11215940C9B230F879
:1037C0001110237A81EA12225A40D2B230F8122024
:1037D000637A82EA11215940C9B230F81110A37AF4
:1037E00081EA12225A40D2B230F81220E37A82EAF9
:1037F00011215940C9B230F81110237B81EA1222FD
:103800005A40D2B230F81220637B82EA112159402B
:10381000C9B230F81110A37B81EA12225A40D2B209
:1038200030F81220E37B82EA11215940C9B230F806
:103830001110237C81EA12225A40D2B230F81220B1
:10384000637C82EA11215940C9B230F81110A37C7F
:1038500081EA12225A40D2B230F81220E37C82EA86
:1038600011215940C9B230F81110237D81EA12228A
:103870005A40D2B230F81220637D82EA11215940B9
:10388000C9B230F81110A37D81EA12225A40D2B297
:1038900030F81200B4F8172080EA1120824204D0D8
:1038A00000200025FEF7CEF918B10120FEF718FC24
:1038B0000546284606B070BD70B5866D044600F01A
:1038C0009DF994F83510022928D105462068216C0D
:1038D000026822F016020260426922F08002426110
:1038E00009B9A16C19B1016821F0080101600168F2
:1038F00021F00101016000BF20680068C00715D0F9
:1039000000F07CF9401B0628F6D3202060650320D8
:1039100084F83500002184F8341070BD8020606583
:103920000120002184F8341070BD00BFE06D3F21FC
:1039300001FA00F0B060012084F835000020002179
:1039400084F8341070BD000090F83510022909D1B8
:10395000052180F835100068016821F0010101603F
:10396000002070478021416501207047B0B50446B2
:1039700000F044F9054640F20000C2F20000007871
:10398000611C18BF044400BF00F038F9401BA0427E
:10399000FAD3B0BD012818BF704770B588B040F2A7
:1039A000980544F63000C2F20005C0F2166045F8F2
:1039B000530F41F21520A8802320A8714FF4FA601C
:1039C0000721029042F67030CDE90051C2F20000AA
:1039D000D02100220123002600F08AFB0F4803AC0F
:1039E00003900EA0031D00690ECB0DF1100C079083
:1039F00020468CE80E00FCF78EFE82B242F6A44010
:103A0000C2F2000021464FF4FA7302F04DF82E6026
:103A1000C5F8036008B0BDE8704070474750494F93
:103A20005F455854495F43616C6C6261636B0A0087
:103A300043F61441C4F201010A68024214BF08604F
:103A40007047FFF7A7BF00002DE9F04F82B000F1EB
:103A50003E4241F6004502F1FF77C4F2020508221A
:103A600043F6004E4FEAB726A84208BF0722C4F229
:103A7000010E072E38BF4FEAB72201250026002786
:103A80004FF00008009208E008F101080437B8F18F
:103A9000100F06F1020600F0A7800C6805FA08F97D
:103AA00014EA090FF0D0D1F804B003220BF0030C94
:103AB000ACF10104B240012C6FEA020A10D882680E
:103AC000CC6802EA0A02B440224382604268CBF327
:103AD000001422EA090204FA08F42243426005E0D5
:103AE000BCF1030F02D14FF0030C20E0C2688C68D8
:103AF00002EA0A02B4402243BCF1020FC26016D1AE
:103B00006FF0030202EA58020244D2F820C007F024
:103B10001C050F230C69AB402CEA030304FA05F5DE
:103B20002B431362D1F804B001250BF0030C02689B
:103B30000CFA06F302EA0A021A431BF4403F026041
:103B4000A2D0002243F644030192C4F202031A6891
:103B50004FF6084C42F480421A601A68CFF6FF7C98
:103B600002F480420192019A28F00302724452F852
:103B70000C3007F00C050F24AC40A343009C04FA62
:103B800005F52B4342F80C30DEF808204B6842EA7A
:103B9000090543F60C4CDC0258BF22EA0905CEF8B1
:103BA0000850C4F2010CDCF800209C0242EA09052E
:103BB00058BF22EA0905CCF80050DEF804209C0327
:103BC00042EA090558BF22EA0905CEF80450DEF89A
:103BD0000020DB0342EA090558BF22EA0905CEF8B6
:103BE0000050012550E700BF02B0BDE8F08F000093
:103BF000002A08BF090481617047000042F64C505A
:103C0000C2F200000068704770B5B8B3044690F87F
:103C10003D0028B9002084F83C00204600F056FB07
:103C2000242084F83D002068016821F00101016032
:103C3000016841F400410160016821F40041016024
:103C400000F01AFD48F28041C0F21E0140F6001358
:103C5000D4F804E088424FF00001C0F23D0348F27E
:103C6000A16C4FF0000238BF01219842C0F2010C54
:103C700038BF0122E64538BF0A460AB1012070BDAF
:103C80004DF68361C4F21B31A0FB01122168950C33
:103C90004B684FF4967623F03F0343EA9243754313
:103CA00044F6D3564B60C1F262060B6AA5FB06567A
:103CB000B50923F03F03E64538BF950C6A1C1A434B
:103CC0000A62CA6948F2A0664CF6FF73C0F20106A8
:103CD000B64522EA03020BD801384FEA4E03B0FB87
:103CE000F3F001306FF31F30042898BF04201EE06A
:103CF000A368013863B119230EFB03F3B0FBF3F0A3
:103D000001306FF31F3078B100F5804008E000BF4C
:103D10000EEB4E03B0FBF3F001306FF31F3028B110
:103D200000F5004003E000BF012000E00120104347
:103D3000C8610868D4E9072320F0C0001043184385
:103D40000860886848F2FF3204F10C0690434CCEBC
:103D500018431043A5698860C86820F0FF0030430D
:103D60002843C860086840F0010008600020202156
:103D7000206484F83D10206384F83E0070BD00008C
:103D80002DE9F04784B0984617460E460446FFF7E3
:103D900035FF94F83D10202923D10546206881691C
:103DA000890719D5FFF72AFF401B1928F6D90020EB
:103DB0002021206384F83D1084F83E00206C04F13B
:103DC0003C0940F0200020640220002189F8001006
:103DD00004B0BDE8F08700BFA14619F83C1F0129D7
:103DE00004D1022004B0BDE8F08700BF012289F8A9
:103DF00000200368DDE90D1A0C9ADB0703D1036884
:103E000043F001030360036823F40063036022208E
:103E100084F83D00402084F83E0000202064626267
:103E20006185608D314620850020CFF6FF70E0620D
:103E300020463A464346CDF800A0019501F07CFFAC
:103E400020B1012004B0BDE8F08700BF208DA8B1EB
:103E500002282BD0012835D121680A6822F480621B
:103E60000A60002203924A6903928A690392039AC4
:103E70000A6842F400720A602CE000BF0020039040
:103E8000206841690391816903910399016841F4B4
:103E900000710160202084F83D00002084F83E007D
:103EA000002189F8001004B0BDE8F08721680A6895
:103EB00022F480620A600A6842F400620A6000220A
:103EC000039202E00021039121684A690392896903
:103ED000039103990AF1010680B2032818D8022839
:103EE00042D0012856D1BAF1000F00F0AB80206813
:103EF000014651F8142F520600F1A8800868C00648
:103F000000F1E280FFF77AFE401B5045EFD9D0E088
:103F1000BAF1000F10D000BF2068014651F8142FED
:103F200052060ED40868C00600F1CE80FFF766FE88
:103F3000401B5045F0D9BCE020684169490640F17A
:103F4000B1800069616A0870606A2268411C208D36
:103F5000616201382085638D013B638553695B078E
:103F600040F18080106973E020684169490747D4B7
:103F7000002E59D0BAF1000F00F09980FFF73EFEF5
:103F8000401B504500F29580206841694907F5D5EE
:103F900036E000BF2068416949070FD4002E65D084
:103FA000BAF1000F00F08380FFF728FE401B504558
:103FB00000F27F80206841694907F5D5016821F446
:103FC000806101600069616A0870606A218D01305A
:103FD0000139606221852068618D013961854169FF
:103FE00049070DD4002E4FD0BAF1000F5FD0FFF774
:103FF00005FE401B50455CD8206841694907F6D54D
:10400000016841F4007101600069616A0870606ACA
:104010002268411C6162218D01392185618D013940
:1040200061851169417014E041694907E8D441692B
:1040300049075CBF41695FEA4171E1D441694907C1
:10404000F2D5DDE72068416949062BD50069616A30
:104050000870606A218D01306062481E2085618D84
:104060000139618501047FF437AF13E741694907DE
:10407000A4D4416949075CBF41695FEA41719DD49D
:1040800041694907F2D599E741694907B8D44169BF
:1040900049075CBF41695FEA4171B1D44169490791
:1040A000F2D5ADE750F8141FC90601460CD4FFF74E
:1040B000A5FD00202021206384F83D1084F83E00F7
:1040C000206C40F020000AE06FF010000860002033
:1040D0002021206384F83D1084F83E00206C206489
:1040E0000120002189F8001004B0BDE8F08700002D
:1040F0002DE9F04383B0994616460F460446FFF774
:104100007DFD94F83D1020291CD105462068816969
:10411000890713D5FFF772FD401B1928F6D9002037
:104120002021206384F83D1084F83E00216C41F08A
:104130002001216484F83C0004E000BF94F83C10A6
:10414000012903D1022003B0BDE8F083012284F8E5
:104150003C200368DDE90B180A9ADB0703D10368EA
:1041600043F001030360036823F40063036021202C
:1041700084F83D00402084F83E0000202064626204
:104180006185608D394620850020CFF6FF70E062A2
:10419000204632464B46CDF80080019501F05CFF89
:1041A00020B1012003B0BDE8F08300BF208D0028BE
:1041B00050D0206808F10106014651F8142F12066C
:1041C0002CD49EB1B8F1000F5AD000BF086840054A
:1041D0005ED4FFF713FD401B404556D820680146CA
:1041E00051F8142F1206F1D518E000BF0A685205E5
:1041F0004ED40A68120611D40A68520548D40A68D7
:1042000012060BD40A68520542D40A68120605D475
:104210000A6852053CD40A681206E7D5626A11465C
:1042200011F8013B0361238D6162591E2185678D61
:10423000013F678547697F070AD50F0408D0517889
:104240000161911C6162991E2185628D013A62852E
:104250000904B1D1204641462A4602F037F838BB5E
:104260002068016841F400710160202084F83D005D
:10427000002084F83E0084F83C0003B0BDE8F083E1
:104280000868400504D4FFF7B9FC202004E000BF13
:104290006FF480600860042000212022216384F8EC
:1042A0003D2084F83E10226C1043206484F83C10BA
:1042B000206C04287FF475AF2068016841F4007118
:1042C0000160012003B0BDE8F0830000B0B586B006
:1042D000006845F60001C4F2000100248842CDE9DF
:1042E0000444CDE90244019430D045F20041C4F2C7
:1042F0000001884253D1002443F630050094C4F2F3
:104300000205286801A940F002002860286800F032
:10431000020000900098C02001901220CDE9020414
:10432000032004900420059040F20040C4F20200F3
:10433000FFF78AFB0094286940F40010286128697F
:1043400000F400100090009806B0B0BD43F63005B0
:104350000094C4F20205286801A940F00200286018
:10436000286800F00200009000984FF4406001902F
:104370001220CDE90204032004900420059040F2AD
:104380000040C4F20200FFF75FFB0094286940F48C
:1043900080002861286900F480000090009806B031
:1043A000B0BD000040F2000042F64C51C2F20000E5
:1043B000C2F2000100780A681044086070470000EB
:1043C00080B543F60040C4F20200016841F4007178
:1043D0000160016841F480610160016841F480710D
:1043E0000160032000F088F80F2000F005F800F0CD
:1043F00027F8002080BD000070B540F20006C2F230
:10440000000640F20C013278C2F200014FF47A73D8
:104410000968B3FBF2F20446B1FBF2F1084600F082
:1044200089FE0F2C4FF0010508D838B94FF0FF3046
:1044300021460022002500F033F87460284670BD44
:1044400082B0002043F640010190C4F202014A68A4
:1044500042F480424A604A6802F480420192019A22
:104460000090086840F080500860086800F08050B4
:104470000090009802B07047002848BF7047C1B252
:1044800000F01F00012202FA00F04EF20012CEF2FC
:10449000000242EAD10121F00301086070470000E8
:1044A00010B54EF60C5CCEF2000CDCF80030C3F315
:1044B000022E8EF00704042C28BF0424BEF103034F
:1044C0004FF0FF3E0EFA04F438BF0023A143994099
:1044D0000EFA03F39A43114300F00F0200F1604318
:1044E0000901043A03F564436244002848BF02F11D
:1044F0000C03197010BD00004EF60C51CEF20001F5
:104500000A684FF6FF031A4060F30A2242F0806007
:1045100040F0FD70086070472DE9F041002800F080
:104520008B8043F60808C4F202080446D8F8F80362
:104530000D4600F00700884207D288F8F853D8F8F3
:10454000F80300F00700A84276D12068810717D54C
:10455000410705D5D8F8001041F4E051C8F8001023
:10456000010705D5D8F8001041F46041C8F80010E3
:10457000D8F80010A26821F0F0011143C8F800102B
:10458000C0073FD1D8F8F80300F00700A84207D9C8
:1045900088F8F853D8F8F80300F00700A8424BD188
:1045A0002068410707D5D8F80010E26821F4E051EF
:1045B0001143C8F80010000708D5D8F80000216999
:1045C00020F4604040EAC100C8F8000000F07CF828
:1045D000D8F800104EF6EC22C1F30311C0F6000229
:1045E000515C40F20C0220FA01F140F20400C2F2E8
:1045F00000000068C2F200021160FFF7FDFE00201B
:10460000BDE8F0816068811E022907D258F8081CB5
:1046100089015CBF0120BDE8F08111E0012807D1CC
:1046200058F8081C89035CBF0120BDE8F08107E051
:1046300058F8081C890703D40120BDE8F08100BFA9
:10464000D8F8001021F003010843C8F80000FFF774
:10465000D5FA064641F28837D8F80000616800F0C4
:104660000C00B0EB810F8DD0FFF7C8FA801BB84269
:10467000F2D90320BDE8F08140F20C0043F60801B6
:10468000C2F20000C4F20201006809684EF6FC2282
:10469000C1F38221C0F60002515CC840704700009F
:1046A00040F20C0043F60801C2F20000C4F202011D
:1046B000006809684EF6FC22C1F34231C0F60002E0
:1046C000515CC8407047000010B543F60404C4F2C2
:1046D0000204606800F00C0142F200400829C0F2B8
:1046E000F40007D0042918BF10BD41F20020C0F229
:1046F0007A0010BD216801F03F0221682368490259
:10470000C3F3881106D4A1FB00010023FBF7CAFD07
:1047100007E000BF41F20020C0F27A004843B0FB3E
:10472000F2F021680222C1F3014102EB4101B0FB2A
:10473000F1F010BD2DE9F04182B0002868D00446A8
:10474000007843F60006C007C4F202060BD0B0683A
:1047500000F00C00042840F09F803068800302D5F0
:104760006068002854D0207880071AD5B06810F00F
:104770000C0F09D0B06800F00C00082840F0A680AB
:104780007068400200F1A2803068800702D5E068BE
:1047900001283DD13068216920F0F80040EAC100CD
:1047A00030602078000737D4207840074CD4A569C2
:1047B00055B3B06800F00C00082840F0BB80012D14
:1047C00026D07068E16900F480028A4220D1216A13
:1047D00000F03F028A421BD147F6C071626A014075
:1047E000B1EB821F14D1A16A4FF6FF73C90399433D
:1047F00000F44032A1F580318A4209D1E16A00F02B
:104800007060B0EB016F03D1002002B0BDE8F08111
:10481000012002B0BDE8F0816069002840F200008C
:10482000C4F2472076D00121C0F8801EFFF7E6F9D8
:10483000054600BF706F8007B6D4FFF7DFF9401B55
:104840000228F7D9DDE000BF306C10F080580AD1A3
:1048500000200190306C40F080503064306C00F0EB
:1048600080500190019847F20007C4F200073868B1
:10487000C00541D4386840F480703860FFF7BEF955
:10488000054600BF3868C00536D4FFF7B7F9401BAE
:104890000228F7D9B5E000BFB06800F00C00082886
:1048A00003D1706840023FF558AF6068B0F5803FB3
:1048B00007D0B0F5A02F40F08D80306840F4802004
:1048C0003060306840F4803030608DE0E06800286F
:1048D00052D00020C4F2472001210160FFF78EF979
:1048E000054600BF306880073FF554AFFFF786F9F3
:1048F000401B0228F6D984E0A068012805D00528CD
:104900004ED1306F40F004003067306F40F001004E
:1049100030674FE00021C0F8801EFFF76FF90546B1
:10492000706F80077FF540AFFFF768F9401B0228E2
:10493000F6D966E00027C4F2472700203866FFF763
:104940005DF9022D05460BD1306880015ED5FFF779
:1049500055F9401B02284FF00300F5D955E700BF79
:10496000306880017FF550AFFFF748F9401B0228FF
:104970004FF00300F4D948E70020C4F2472000219B
:104980000160FFF73BF90546306880077FF509AF06
:10499000FFF734F9401B02284FF00300F4D934E745
:1049A000316F002821F001013167316F21F00401DE
:1049B00031674DD0FFF722F9054641F2883700BF35
:1049C000306F800756D4FFF719F9401BB842F7D96A
:1049D00017E000BF3168002821F480313160316870
:1049E00021F4802131604FD0FFF708F9054600BF60
:1049F000306880033FF5B7AEFFF700F9401B64282D
:104A0000F6D9032002B0BDE8F08100BF04F11C0517
:104A10002FCD084340EA8210D9034FF6FF7291432D
:104A2000A1F5803140EA05600843706001203866D6
:104A3000FFF7E4F8044600BF306880013FF5E4AEBC
:104A4000FFF7DCF8001B02284FF00300F4D9DCE686
:104A5000FFF7D4F8054641F2883700BF306F800772
:104A600008D5FFF7CBF8401BB8424FF00300F5D94B
:104A7000CBE600BFB8F1000F7FF499AE306C20F0A8
:104A80008050306493E600BFFFF7B8F8054600BFDA
:104A9000306880037FF567AEFFF7B0F8401B6428ED
:104AA0004FF00300F4D9B0E670B538B10446406A5F
:104AB00030B10020206104F1140007E0012070BD36
:104AC0006068B0F5827F03D004F11C000021016012
:104AD0000026A66294F8510020B9204684F8506060
:104AE00000F03CF8022084F8510094E80F0001F433
:104AF0008271056802F4044225F040050560114406
:104B000003F400622369114403F002026369114453
:104B100003F00102A369E569114403F40072114432
:104B200005F03802256A114405F08002A56A114398
:104B300005F4005211430160626A042101EA134145
:104B400002F0100211444160C16921F40061C161A9
:104B50000120666584F85100304670BD80B586B08E
:104B6000016843F20000C4F20100814202D006B0A5
:104B700080BD00BF002143F630020191C4F2020261
:104B8000536900F5504043F480535361536903F473
:104B900080530193019B0191136843F0010313605B
:104BA000126802F001020192019AE02201920222AF
:104BB000CDE90221032104910521059101A9FEF708
:104BC00043FF06B080BD00002DE9F04383B00446EA
:104BD00090F85000012803D1022003B0BDE8F08313
:104BE0004FF001091D4616460F4684F85090FFF716
:104BF00005F894F85110012944D18046002F4FF058
:104C0000010018BF002E00F0D6800320002184F898
:104C1000510061652763A686E686A163A187E187C7
:104C2000A0682164B0F5004F2068616407D1016875
:104C300021F040010160016841F480410160016898
:104C4000490603D4016841F0400101606168731EA8
:104C5000E268B1FA81F1B3FA83F349095B09B2F56D
:104C6000006F41EA03013DD131B137F8021BC16049
:104C70002763E08E0138E086E08E00286CD0681C47
:104C80000DD11EE0022096E0216B31F8022BC260AC
:104C90002163E08E0138E086E08E00285CD0206839
:104CA00081688907F0D4FEF7A9FFA0EB0800A842AD
:104CB000F2D303207FE000BFFEF7A0FFE08E0028C4
:104CC0004AD0206881688907F6D5216B31F8022B1C
:104CD000C2602163E08E0138E086E08E0028F0D1CA
:104CE0003AE000BF39B139780173206B013020639D
:104CF000E08E0138E086E08E70B3681C0BD11BE0BB
:104D0000216B09780173206B01302063E08E01383C
:104D1000E086E08E00B3206881688907F0D4FEF752
:104D20006DFFA0EB0800A842F3D3032043E000BFCF
:104D3000FEF764FFE08E78B1206881688907F7D5B7
:104D4000216B09780173206B01302063E08E0138FC
:104D5000E086E08E0028EFD140F20C00C2F20000A5
:104D6000006849F68171C1F25E61A0FB0101480D46
:104D70004FF47A71484302906068B0F5827F23D186
:104D8000204680212A46434602F07CFE28B1606D11
:104D900040F02000606520206065A06838B90020E0
:104DA00001902068C1680191806801900198606D50
:104DB000002818BF0120002184F8519084F8501079
:104DC00003B0BDE8F08300BF02980028E5D0029848
:104DD00001380290206880680006DED5029800281D
:104DE000DBD0029801380290206880680006D4D594
:104DF00002980028D1D0029801380290206880687B
:104E00000006CAD502980028C7D00298013802903F
:104E1000206880680006D7D4BFE700002DE9F04382
:104E200083B0044690F85000012803D1022003B05B
:104E3000BDE8F08301201E4615460F4684F8500059
:104E4000FEF7DCFE94F851108146012940F098806D
:104E5000002F4FF0010018BF002D00F09E80002EA3
:104E600000F09B8094F85100002104281CBF05200D
:104E700084F851006165A563E687A6872763E68607
:104E80002068A686216461640168490603D401682C
:104E900041F0400101606168731EE268B1FA81F17E
:104EA000B3FA83F3DDF8288049095B09B2F5006F96
:104EB00041EA03017AD131B137F8021BC16027639F
:104EC000E08E0138E086012518F1010031D101E0C2
:104ED000FEF794FEE08E18B9E08F002800F0D08035
:104EE0002068816889070CD5E18E51B1012D08D168
:104EF000216B002531F8022BC2602163E18E01395C
:104F0000E1868168C907E3D0E18F0029E0D0C0685D
:104F1000A16B012521F8020BA163E08F0138E08726
:104F2000D6E700BFFEF76AFEA0EB0900404580F01F
:104F3000FD80E08E18B9E08F002800F0A180206885
:104F4000816889070CD5E18E51B1012D08D1216B03
:104F5000002531F8022BC2602163E18E0139E18620
:104F60008168C907DED0E18F0029DBD0C068A16B62
:104F7000012521F8020BA163E08F0138E087D1E71A
:104F80006068B0F5827F07D1A06800284FF002006A
:104F900008BF042901D15BE70220012184F85110E8
:104FA000002184F8501003B0BDE8F08339B139789E
:104FB0000173206B01302063E08E0138E08601250B
:104FC00018F1010033D101E0FEF718FEE08E10B9B0
:104FD000E08F002854D02068816889070ED5E18EC3
:104FE00061B1012D0AD1216B002509780173216B74
:104FF000206801312163E18E0139E1868168C907AA
:10500000E2D0E18F0029DFD0C068A16B01250870D4
:10501000A06B0130A063E08F0138E087D4E700BFC8
:10502000FEF7ECFDA0EB0900404580F08180E08EAA
:1050300008B9E08F20B32068816889070ED5E18E1A
:1050400061B1012D0AD1216B002509780173216B13
:10505000206801312163E18E0139E1868168C90749
:10506000DED0E18F0029DBD0C068A16B012508707C
:10507000A06B0130A063E08F0138E087D0E700BF6C
:1050800040F20C00C2F20000006849F68171C1F2E2
:105090005E61A0FB0101480D4FF47A714843029014
:1050A0006068B0F5827F0FD12046802142464B4692
:1050B00002F0E8FC60B3606D40F0200060652020E5
:1050C0006065012069E700BF029808B302980138C3
:1050D00002902068806800061AD50298C0B1029834
:1050E0000138029020688068000611D5029878B1D6
:1050F00002980138029020688068000608D502985E
:1051000030B1029801380290206880680006DBD434
:10511000A06800284FF000007FF43FAF01902168A5
:10512000CA68019289680191019936E7032034E742
:10513000032032E7411E0020B0EB116F1CBF01209D
:1051400070474EF21002CEF2000251604EF623512B
:10515000CEF20001F0230B700721906011607047C0
:105160007047000070470000B0B582B00446006888
:105170000168C368426901F02F05202D03F0200566
:1051800006D12DB1204602B0BDE8B04002F070BD9E
:105190005FEA017C1EBF02F0010E03F4907212EB75
:1051A0000E0253D1226B012A05D111F0100218BF53
:1051B00013F0100236D10A0622D513F080021FD058
:1051C00094F83D1021293FD1A168B1F5805F03D14A
:1051D0002169002900F07282216A4A1C2262097842
:1051E0004160E18C01390A04E1842DD1C16821F0CC
:1051F0008001C160C16841F04001C16002B0B0BD32
:10520000490621D513F040011ED0C16821F04001AC
:10521000C1602021204684F83D1002B0BDE8B040B6
:1052200000F086BD00210191016801914168019162
:1052300001994069400613D4A08DE18DE28D002ACA
:1052400018BF884240F0BE8102B0B0BDCA0718BF87
:1052500013F4807240F0BA804A0700F1BD80C2E0CA
:10526000A16B0868426893B2002BEDD0A08D8342F9
:10527000EAD2E285C969B1F5807F00F09D8020689F
:1052800050E8030F216820F4807041E80302DAB18E
:10529000206850E8030F216820F4807041E8030281
:1052A00092B1206850E8030F216820F4807041E833
:1052B00003024AB1206850E8030F216820F480708F
:1052C00041E80302002ADAD1206850E8050F21687E
:1052D00020F0010041E80502DAB1206850E8050F2E
:1052E000216820F0010041E8050292B1206850E8F1
:1052F000050F216820F0010041E805024AB120684D
:1053000050E8050F216820F0010041E80502002A5D
:10531000DAD1206850E8050F216820F0400041E80C
:105320000502DAB1206850E8050F216820F040003E
:1053300041E8050292B1206850E8050F216820F08D
:10534000400041E805024AB1206850E8050F216895
:1053500020F0400041E80502002ADAD1202084F83C
:105360003E0000202063206850E8030F216820F0F1
:10537000100041E80302DAB1206850E8030F216809
:1053800020F0100041E8030292B1206850E8030FBA
:10539000216820F0100041E803024AB1206850E87B
:1053A000030F216820F0100041E80302002ADAD13F
:1053B000A06BFEF781FAA08DE18D401A81B22046E4
:1053C00002B0BDE8B040FFF7CBBE00BF226C42F098
:1053D000010222644A0706D5BEF1000F03D0226CF9
:1053E00042F0020222648A0706D5BEF1000F03D004
:1053F000226C42F004022264BCF1000F09D545EA98
:105400000E02B2FA82F2520903D1226C42F0080273
:105410002264226C002A3FF417AF11F0200118BF5C
:10542000002D03D0204602F023FC20684069216C47
:1054300000F0400001F00801401800F0B58000BF06
:10544000206850E8030F216820F4907041E80302BF
:10545000BAB3206850E8030F216820F4907041E847
:10546000030272B3206850E8030F216820F49070A3
:1054700041E803022AB3206850E8030F216820F4B2
:10548000907041E80302002ADAD11AE0206850E85F
:10549000050F216820F0010041E80502DAB120681B
:1054A00050E8050F216820F0010041E8050292B1A3
:1054B000206850E8050F216820F0010041E805024E
:1054C0004AB1206850E8050F216820F0010041E84A
:1054D0000502002ADAD1206B012824D1206850E887
:1054E000030F216820F0100041E80302DAB12068C0
:1054F00050E8030F216820F0100041E8030292B148
:10550000206850E8030F216820F0100041E80302F2
:105510004AB1206850E8030F216820F0100041E8EC
:105520000302002ADAD1202084F83E000020206304
:105530002068406940063FD5206850E8050F216883
:1055400020F0400041E80502DAB1206850E8050F7C
:10555000216820F0400041E8050292B1206850E83F
:10556000050F216820F0400041E805024AB120689B
:1055700050E8050F216820F0400041E80502002AAC
:10558000DAD1A06BC0B147F66541C0F600010165F4
:10559000FEF7DAF900283FF457AEA06B016D02B0B8
:1055A000BDE8B040084700BF2046FFF7DBFD002004
:1055B000206402B0B0BD00BF204602B0BDE8B040DC
:1055C000FFF7D0BD401A216851E8031F226821F47B
:1055D000907142E80313DBB1216851E8031F226890
:1055E00021F4907142E8031393B1216851E8031F3D
:1055F000226821F4907142E803134BB1216851E80D
:10560000031F226821F4907142E80313002BDAD1C2
:10561000216851E8051F226821F0010142E80513C5
:10562000DBB1216851E8051F226821F0010142E841
:10563000051393B1216851E8051F226821F001018B
:1056400042E805134BB1216851E8051F226821F09B
:10565000010142E80513002BDAD1202184F83E1025
:1056600000212163216851E8031F226821F0100105
:1056700042E80313002B3FF4A1AE216851E8031F59
:10568000226821F0100142E80313002B3FF496AE8C
:10569000216851E8031F226821F0100142E803133A
:1056A000002B3FF48BAE216851E8031F226821F0E4
:1056B000100142E80313002BD4D17FE6216A31F8B0
:1056C000022B6FF35F22426021628AE5002804BF4B
:1056D0000120704710B5044690F83D0028B900201D
:1056E00084F83C00204600F021F8242084F83D0096
:1056F0002068C16821F40051C160204602F038FBE7
:105700002068016921F490410161416921F02A0179
:105710004161C16841F40051C16000202021206432
:1057200084F83D1084F83E1010BD00002DE9F043D0
:1057300087B0006844F20042C4F2000200219042A7
:10574000CDE90511CDE9031102915BD045F20001CD
:10575000C4F20001884200F07F8044F60041C4F2A8
:105760000001884275D1002643F630000196C4F24C
:1057700002000169002441F4002101610169C4F2C1
:10578000020401F40021019101990196016802AD22
:1057900041F0010101600168022701F0010101915E
:1057A0000199019601684FF0030841F0040101607E
:1057B00000684FF0080900F00400019001982046AD
:1057C0002946CDE902770496CDF81480CDF81890DB
:1057D000FEF73AF94FF48060CDE9020704A880E8AB
:1057E000400304F500602946FEF72EF9342000211D
:1057F0000022FEF755FE3420FEF73EFE07B0BDE85E
:10580000F08300BF43F630000191C4F20200026948
:1058100042F400320261026902F400320192019AFC
:105820000191026842F001020260006800F001008C
:10583000019001980C2002900220CDE90301032081
:105840000590072006900020C4F2020002A9FEF78E
:10585000FBF807B0BDE8F083002543F63000019562
:10586000C4F202000169002741F48011016101695D
:10587000C4F2020701F480110191019901950168B8
:1058800002AC41F00401016001684FF0020801F030
:10589000040101910199019501684FF0030941F05C
:1058A000080101600068082600F0080001900198D6
:1058B0004FF48050029007F500602146CDE9038542
:1058C000CDF814900696FEF7BFF80420CDE9020843
:1058D00007F540602146CDE904590696FEF7B4F875
:1058E00007B0BDE8F08300002DE9F04381B0044625
:1058F00090F83E0020280DD10E4600294FF00100FF
:1059000000F0CC801746002A00F0C88094F83C00D4
:10591000012803D1022001B0BDE8F083012084F802
:105920003C00002022211D46206484F83E102063A4
:10593000FEF764F9A785E785A1680746B1F5805FA2
:1059400001D1206910B1B046002601E04FF00008F7
:10595000002084F83C00E08D002800F09B8005F1D9
:1059600001090DE040684FF000086FF35F2026F852
:10597000020BE08D0138E085E08D002800F08A8080
:105980002068016889060DD4B9F1000F18D04DB315
:10599000FEF734F9C01BA84224D8206801688906A4
:1059A000F6D500BFB8F1000FDCD0A168B1F5805F7B
:1059B00014D009B9216989B1406800F07F000EE078
:1059C00001688906EED4016889065CBF01685FEA58
:1059D0008161E7D401688906F2D5E3E7406808F8F9
:1059E000010BC6E7206850E8030F216820F4D0704F
:1059F00041E80302E2B1206850E8030F216820F477
:105A0000D07041E803029AB1206850E8030F216882
:105A100020F4D07041E8030252B1206850E8030F2F
:105A2000216820F4D07041E80302002ADAD100BFD7
:105A3000206850E8050F216820F0010041E80502C8
:105A4000DAB1206850E8050F216820F0010041E834
:105A5000050292B1206850E8050F216820F001008E
:105A600041E805024AB1206850E8050F216820F09E
:105A7000010041E80502002ADAD1202084F83D0027
:105A800084F83E00002084F83C00032001B0BDE80B
:105A9000F08300BF202084F83E00002001B0BDE864
:105AA000F0830000704700002DE9F04381B0044608
:105AB00090F83D0020280DD10F4600294FF001003D
:105AC00000F0DD801646002A00F0D98094F83C00F2
:105AD000012803D1022001B0BDE8F083012084F841
